{
  "contractName": "Team",
  "abi": [
    {
      "constant": true,
      "inputs": [
        {
          "name": "",
          "type": "uint256"
        }
      ],
      "name": "members",
      "outputs": [
        {
          "name": "name",
          "type": "string"
        },
        {
          "name": "cid",
          "type": "string"
        }
      ],
      "payable": false,
      "stateMutability": "view",
      "type": "function",
      "signature": "0x5daf08ca"
    },
    {
      "constant": false,
      "inputs": [
        {
          "name": "name",
          "type": "string"
        },
        {
          "name": "cid",
          "type": "string"
        }
      ],
      "name": "addMember",
      "outputs": [],
      "payable": false,
      "stateMutability": "nonpayable",
      "type": "function",
      "signature": "0xea6c38ef"
    },
    {
      "constant": true,
      "inputs": [],
      "name": "countMembers",
      "outputs": [
        {
          "name": "",
          "type": "uint256"
        }
      ],
      "payable": false,
      "stateMutability": "view",
      "type": "function",
      "signature": "0x2cd046eb"
    }
  ],
  "bytecode": "0x608060405234801561001057600080fd5b506105c9806100206000396000f3fe608060405260043610610057576000357c0100000000000000000000000000000000000000000000000000000000900463ffffffff1680632cd046eb1461005c5780635daf08ca14610087578063ea6c38ef146101a7575b600080fd5b34801561006857600080fd5b50610071610306565b6040518082815260200191505060405180910390f35b34801561009357600080fd5b506100c0600480360360208110156100aa57600080fd5b8101908080359060200190929190505050610312565b604051808060200180602001838103835285818151815260200191508051906020019080838360005b838110156101045780820151818401526020810190506100e9565b50505050905090810190601f1680156101315780820380516001836020036101000a031916815260200191505b50838103825284818151815260200191508051906020019080838360005b8381101561016a57808201518184015260208101905061014f565b50505050905090810190601f1680156101975780820380516001836020036101000a031916815260200191505b5094505050505060405180910390f35b3480156101b357600080fd5b50610304600480360360408110156101ca57600080fd5b81019080803590602001906401000000008111156101e757600080fd5b8201836020820111156101f957600080fd5b8035906020019184600183028401116401000000008311171561021b57600080fd5b91908080601f016020809104026020016040519081016040528093929190818152602001838380828437600081840152601f19601f8201169050808301925050505050505091929192908035906020019064010000000081111561027e57600080fd5b82018360208201111561029057600080fd5b803590602001918460018302840111640100000000831117156102b257600080fd5b91908080601f016020809104026020016040519081016040528093929190818152602001838380828437600081840152601f19601f820116905080830192505050505050509192919290505050610475565b005b60008080549050905090565b60008181548110151561032157fe5b9060005260206000209060020201600091509050806000018054600181600116156101000203166002900480601f0160208091040260200160405190810160405280929190818152602001828054600181600116156101000203166002900480156103cd5780601f106103a2576101008083540402835291602001916103cd565b820191906000526020600020905b8154815290600101906020018083116103b057829003601f168201915b505050505090806001018054600181600116156101000203166002900480601f01602080910402602001604051908101604052809291908181526020018280546001816001161561010002031660029004801561046b5780601f106104405761010080835404028352916020019161046b565b820191906000526020600020905b81548152906001019060200180831161044e57829003601f168201915b5050505050905082565b60006040805190810160405280848152602001838152509080600181540180825580915050906001820390600052602060002090600202016000909192909190915060008201518160000190805190602001906104d39291906104f8565b5060208201518160010190805190602001906104f09291906104f8565b505050505050565b828054600181600116156101000203166002900490600052602060002090601f016020900481019282601f1061053957805160ff1916838001178555610567565b82800160010185558215610567579182015b8281111561056657825182559160200191906001019061054b565b5b5090506105749190610578565b5090565b61059a91905b8082111561059657600081600090555060010161057e565b5090565b9056fea165627a7a7230582061531ea4d40f0f3ae1c6ef76ae36c6ebc65332b5b39b57319f8d84d1eaf28d7e0029",
  "source": "pragma solidity >=0.4.22 <0.7.0;\r\n\r\ncontract Team {\r\n    struct Member {\r\n        string name;\r\n        string cid;\r\n    }\r\n    \r\n    Member[] public members;\r\n    \r\n    function addMember(string memory name, string memory cid) public {\r\n        members.push(Member({name:name, cid:cid}));\r\n    }\r\n    \r\n    function countMembers() public view returns (uint) {\r\n        return members.length;\r\n    }\r\n}",
  "sourcePath": "E:/github/projectd/truffle/contracts/Team.sol",
  "compiler": {
    "name": "solc",
    "version": "0.5.0+commit.1d4f565a.Emscripten.clang"
  },
  "schemaVersion": "3.0.6",
  "updatedAt": "2019-04-13T08:25:13.673Z",
  "devdoc": {
    "methods": {}
  },
  "userdoc": {
    "methods": {}
  }
}