{
  "contractName": "Team",
  "abi": [
    {
      "constant": true,
      "inputs": [
        {
          "name": "",
          "type": "uint256"
        }
      ],
      "name": "members",
      "outputs": [
        {
          "name": "name",
          "type": "string"
        },
        {
          "name": "cid",
          "type": "string"
        }
      ],
      "payable": false,
      "stateMutability": "view",
      "type": "function",
      "signature": "0x5daf08ca"
    },
    {
      "constant": false,
      "inputs": [
        {
          "name": "name",
          "type": "string"
        },
        {
          "name": "cid",
          "type": "string"
        }
      ],
      "name": "addMember",
      "outputs": [],
      "payable": false,
      "stateMutability": "nonpayable",
      "type": "function",
      "signature": "0xea6c38ef"
    },
    {
      "constant": true,
      "inputs": [],
      "name": "countMembers",
      "outputs": [
        {
          "name": "",
          "type": "uint256"
        }
      ],
      "payable": false,
      "stateMutability": "view",
      "type": "function",
      "signature": "0x2cd046eb"
    },
    {
      "constant": true,
      "inputs": [],
      "name": "getMembers",
      "outputs": [
        {
          "components": [
            {
              "name": "name",
              "type": "string"
            },
            {
              "name": "cid",
              "type": "string"
            }
          ],
          "name": "",
          "type": "tuple[]"
        }
      ],
      "payable": false,
      "stateMutability": "view",
      "type": "function",
      "signature": "0x9eab5253"
    }
  ],
  "bytecode": "0x608060405234801561001057600080fd5b506108f2806100206000396000f3fe608060405260043610610062576000357c0100000000000000000000000000000000000000000000000000000000900463ffffffff1680632cd046eb146100675780635daf08ca146100925780639eab5253146100d0578063ea6c38ef146100fb575b600080fd5b34801561007357600080fd5b5061007c610124565b60405161008991906107ad565b60405180910390f35b34801561009e57600080fd5b506100b960048036036100b49190810190610634565b610130565b6040516100c7929190610776565b60405180910390f35b3480156100dc57600080fd5b506100e5610293565b6040516100f29190610754565b60405180910390f35b34801561010757600080fd5b50610122600480360361011d91908101906105c8565b610436565b005b60008080549050905090565b60008181548110151561013f57fe5b9060005260206000209060020201600091509050806000018054600181600116156101000203166002900480601f0160208091040260200160405190810160405280929190818152602001828054600181600116156101000203166002900480156101eb5780601f106101c0576101008083540402835291602001916101eb565b820191906000526020600020905b8154815290600101906020018083116101ce57829003601f168201915b505050505090806001018054600181600116156101000203166002900480601f0160208091040260200160405190810160405280929190818152602001828054600181600116156101000203166002900480156102895780601f1061025e57610100808354040283529160200191610289565b820191906000526020600020905b81548152906001019060200180831161026c57829003601f168201915b5050505050905082565b60606000805480602002602001604051908101604052809291908181526020016000905b8282101561042d5783829060005260206000209060020201604080519081016040529081600082018054600181600116156101000203166002900480601f0160208091040260200160405190810160405280929190818152602001828054600181600116156101000203166002900480156103735780601f1061034857610100808354040283529160200191610373565b820191906000526020600020905b81548152906001019060200180831161035657829003601f168201915b50505050508152602001600182018054600181600116156101000203166002900480601f0160208091040260200160405190810160405280929190818152602001828054600181600116156101000203166002900480156104155780601f106103ea57610100808354040283529160200191610415565b820191906000526020600020905b8154815290600101906020018083116103f857829003601f168201915b505050505081525050815260200190600101906102b7565b50505050905090565b60006040805190810160405280848152602001838152509080600181540180825580915050906001820390600052602060002090600202016000909192909190915060008201518160000190805190602001906104949291906104b9565b5060208201518160010190805190602001906104b19291906104b9565b505050505050565b828054600181600116156101000203166002900490600052602060002090601f016020900481019282601f106104fa57805160ff1916838001178555610528565b82800160010185558215610528579182015b8281111561052757825182559160200191906001019061050c565b5b5090506105359190610539565b5090565b61055b91905b8082111561055757600081600090555060010161053f565b5090565b90565b600082601f830112151561057157600080fd5b813561058461057f826107f5565b6107c8565b915080825260208301602083018583830111156105a057600080fd5b6105ab838284610865565b50505092915050565b60006105c0823561085b565b905092915050565b600080604083850312156105db57600080fd5b600083013567ffffffffffffffff8111156105f557600080fd5b6106018582860161055e565b925050602083013567ffffffffffffffff81111561061e57600080fd5b61062a8582860161055e565b9150509250929050565b60006020828403121561064657600080fd5b6000610654848285016105b4565b91505092915050565b60006106688261082e565b8084526020840193508360208202850161068185610821565b60005b848110156106ba57838303885261069c838351610701565b92506106a782610844565b9150602088019750600181019050610684565b508196508694505050505092915050565b60006106d682610839565b8084526106ea816020860160208601610874565b6106f3816108a7565b602085010191505092915050565b6000604083016000830151848203600086015261071e82826106cb565b9150506020830151848203602086015261073882826106cb565b9150508091505092915050565b61074e81610851565b82525050565b6000602082019050818103600083015261076e818461065d565b905092915050565b6000604082019050818103600083015261079081856106cb565b905081810360208301526107a481846106cb565b90509392505050565b60006020820190506107c26000830184610745565b92915050565b6000604051905081810181811067ffffffffffffffff821117156107eb57600080fd5b8060405250919050565b600067ffffffffffffffff82111561080c57600080fd5b601f19601f8301169050602081019050919050565b6000602082019050919050565b600081519050919050565b600081519050919050565b6000602082019050919050565b6000819050919050565b6000819050919050565b82818337600083830152505050565b60005b83811015610892578082015181840152602081019050610877565b838111156108a1576000848401525b50505050565b6000601f19601f830116905091905056fea265627a7a72305820b5a67bcbd29bb22a620c3832f88783e10ed29d5b5cd3f2f1b6592fafad23cb076c6578706572696d656e74616cf50037",
  "source": "pragma solidity >=0.4.22 <0.7.0;\r\npragma experimental ABIEncoderV2;\r\n\r\ncontract Team {\r\n    struct Member {\r\n        string name;\r\n        string cid;\r\n    }\r\n    \r\n    Member[] public members;\r\n    \r\n    function addMember(string memory name, string memory cid) public {\r\n        members.push(Member({name:name, cid:cid}));\r\n    }\r\n    \r\n    function countMembers() public view returns (uint) {\r\n        return members.length;\r\n    }\r\n    \r\n    function getMembers() public view returns (Member[] memory) {\r\n        return members;\r\n    }\r\n}\r\n",
  "sourcePath": "E:/github/truffle/projectd/truffle/contracts/Team.sol",
  "compiler": {
    "name": "solc",
    "version": "0.5.0+commit.1d4f565a.Emscripten.clang"
  },
  "schemaVersion": "3.0.6",
  "updatedAt": "2019-04-20T20:25:37.988Z",
  "devdoc": {
    "methods": {}
  },
  "userdoc": {
    "methods": {}
  }
}